:020000040800F2
:100000000080012081200008212000082320000812
:1000100025200008272000082920000800000000F3
:100020000000000000000000000000002B2000087D
:100030002D200008000000002F20000831200008BB
:10004000D1200008D1200008D1200008D1200008CC
:10005000D1200008D1200008D1200008D1200008BC
:10006000D1200008D1200008D1200008D1200008AC
:10007000D1200008D1200008D1200008D12000089C
:10008000D1200008D1200008D1200008D12000088C
:10009000D1200008D1200008D1200008D12000087C
:1000A000D1200008D1200008D1200008D12000086C
:1000B000D1200008D1200008D1200008D12000085C
:1000C000D1200008D1200008D1200008D12000084C
:1000D000D1200008D1200008D1200008D12000083C
:1000E000D1200008D1200008D1200008D12000082C
:1000F000D1200008D1200008D1200008D12000081C
:10010000D1200008D1200008D1200008D12000080B
:10011000D1200008D1200008D1200008D1200008FB
:10012000D1200008D1200008D1200008D1200008EB
:10013000D1200008D1200008D1200008D1200008DB
:10014000D1200008D1200008D1200008D1200008CB
:10015000D1200008D1200008D1200008D1200008BB
:10016000D1200008D1200008D1200008D1200008AB
:10017000D1200008D1200008D12000080000000094
:08018000D1200008D120000885
:1001880010B5054C237833B9044B13B10448AFF3C9
:1001980000800123237010BD08000020000000002B
:1001A8002C21000808B5034B1BB103490348AFF3E2
:1001B800008008BD000000000C0000202C21000871
:1001C80053B94AB9002908BF00281CBF4FF0FF31B6
:1001D8004FF0FF3000F072B9ADF1080C6DE904CEB4
:1001E80000F006F8DDF804E0DDE9022304B070470A
:1001F8002DE9F047089E04468846002B4BD18A42D9
:10020800154667D9B2FA82F24AB1C2F1200701FA5B
:1002180002F320FA07F7954047EA030894404FEAAB
:10022800154E230CB8FBFEF71FFA85FC0EFB17884A
:1002380043EA084307FB0CF1994209D9EB1807F187
:10024800FF3080F01B81994240F21881023F2B4415
:100258005B1AA4B2B3FBFEF00EFB103344EA03446E
:1002680000FB0CFCA44509D92C1900F1FF3380F0E0
:100278000781A44540F2048102382C4440EA074033
:10028800A4EB0C0400271EB1D4400023C6E90043A8
:100298003946BDE8F0878B4209D9002E00F0EB8083
:1002A8000027C6E9000138463946BDE8F087B3FAA9
:1002B80083F7002F47D18B4202D3824200F2FA80A3
:1002C800841A61EB030301209846002EE0D0C6E9AA
:1002D8000048DDE702B9FFDEB2FA82F2002A40F0F8
:1002E8008F80491B4FEA154E1FFA85F80127B1FB8D
:1002F800FEFC230C0EFB1C1143EA014308FB0CF126
:10030800994207D9EB180CF1FF3002D2994200F25A
:10031800CD808446591AA3B2B1FBFEF00EFB10142F
:1003280043EA044408FB00F8A04507D92C1900F15A
:10033800FF3302D2A04500F2B6801846A4EB0804A9
:1003480040EA0C409FE7C7F1200CBB4022FA0CFEA4
:100358004EEA030E01FA07F420FA0CF521FA0CF321
:100368004FEA1E482543B3FBF8F92C0C08FB193358
:100378001FFA8EFA44EA034309FB0AF49C4202FA84
:1003880007F200FA07F10BD91EEB030309F1FF305E
:1003980080F087809C4240F28480A9F1020973446E
:1003A8001B1BADB2B3FBF8F008FB103345EA03445E
:1003B80000FB0AFAA24508D91EEB040400F1FF333A
:1003C8006BD2A24569D90238744440EA0940A0FBBF
:1003D8000289A4EB0A044C45C2464B4654D351D07B
:1003E800002E69D0B1EB0A0564EB030404FA0CFC97
:1003F800FD40FC404CEA0505C6E90054002747E7E4
:10040800C2F1200320FA03F7954001FA02F021FA1D
:1004180003F34FEA154E3843010CB3FBFEF71FFAFE
:1004280085F80EFB173341EA034107FB08F38B42BB
:1004380004FA02F407D9691807F1FF3C2FD28B425E
:100448002DD9023F2944CB1A81B2B3FBFEF00EFB33
:10045800103341EA034100FB08F38B4207D96918BE
:1004680000F1FF3C17D28B4215D902382944C91A2A
:1004780040EA07473BE73746304609E70746E7E6DD
:100488001846FBE64145ABD2B8EB020A69EB0E020F
:1004980001381346A4E76046E9E7184695E767463A
:1004A800D1E781467CE702382C4447E7ACF1020CDF
:1004B8002B442FE7384608E73746E9E6704700BF80
:1004C80010B50446094B1868094BA3FB0030800996
:1004D80000F07AF808B1012010BD002221464FF043
:1004E800FF3000F03DF80020F6E700BF00000020D4
:1004F800D34D621010B5094A136843F48073136032
:10050800032000F01BF80020FFF7DAFF10B10124E8
:10051800204610BD044601F033FDF9E700200240F3
:10052800024A136801331360704700BF240000209B
:10053800014B1868704700BF24000020074AD368A1
:1005480023F4E0631B041B0C000200F4E060184372
:1005580040F0BF6040F40030D060704700ED00E02C
:1005680030B4174BDB68C3F30223C3F10704042C30
:1005780028BF04241D1D062D18D9033B4FF0FF3555
:1005880005FA04F421EA0401994005FA03F322EA82
:100598000303194300280BDB0901C9B200F16040CD
:1005A80000F5614080F8001330BC70470023E5E790
:1005B80000F00F000901C9B2024B1954F4E700BF5B
:1005C80000ED00E014ED00E00138B0F1807F0AD2C0
:1005D800064B5860064AF02182F8231000209860E4
:1005E80007221A6070470120704700BF10E000E042
:1005F80000ED00E0F0B482B0002341E0D0F82CC058
:100608002CEA040CC6F3C0049C4044EA0C04C462FF
:1006180086E0062400E00024B4403C430235664EE0
:1006280046F82540654C2568D44304EA05064F681A
:1006380017F4803F01D042EA0506604D2E606D68D0
:1006480004EA05064F6817F4003F01D042EA0506A0
:100658005A4D6E60AD6804EA05064F6817F4801FAE
:1006680001D042EA0506554DAE60ED682C404E6853
:1006780016F4001F01D042EA0504504AD460013341
:100688000A6832FA03F400F0938001249C40224067
:10069800F5D04D68022D01D0122D10D1DE08083694
:1006A80050F826C003F00705AF000F25BD402CEA1F
:1006B800050C0D69BD4045EA0C0540F82650066852
:1006C8005F000325BD40ED4305EA060C4E6806F0C1
:1006D8000306BE4046EA0C0606604E6806F1FF3C7B
:1006E800BCF1010F03D9112E01D0122E11D1866849
:1006F80005EA060CCE68BE4046EA0C0686604668E7
:1007080026EA040C4E68C6F300169E4046EA0C061C
:1007180046604E6806F0030CBCF1030F3FF46EAF61
:10072800C46825408C68BC402C43C4604C6814F0F5
:10073800805FA4D0224C256E45F001052566246E05
:1007480004F001040194019C9D08AE1C1A4C54F855
:10075800267003F00304A6000F24B44027EA040718
:10076800B0F1904F3FF457AF164CA04216D004F5A5
:100778008064A04214D004F58064A04212D004F52D
:100788008064A04210D004F58064A0420ED004F525
:100798008064A0423FF43DAF07243DE701243BE7D6
:1007A800022439E7032437E7042435E7052433E72F
:1007B80002B0F0BC704700BF0000014000040140D7
:1007C80000100240000400480AB981627047816144
:1007D80070470000024B186800F4C060704700BF03
:1007E80000700040B0F5007F0FD01F4B1B6803F46A
:1007F800C063B3F5806F34D01B4A136823F4C06319
:1008080043F48063136000207047174B1B6803F4A0
:10081800C063B3F5007F22D0134A136823F4C06382
:1008280043F400731360114B1A68322303FB02F37D
:100838000F4AA2FB03239B0C013300E0013B0A4A49
:10084800526912F4806F01D0002BF7D1064B5B6917
:1008580013F4806F01D100207047032070470020F7
:1008680070470020704700BF007000400000002063
:1008780083DE1B4330B583B00546204B9B6D13F0D8
:10088800805F0BD0FFF7A6FFB0F5007F17D0802D53
:100898001FD82DD0702D2DD000211BE0174CA36D33
:1008A80043F08053A365A36D03F080530193019B2C
:1008B800FFF790FFA36D23F08053A365E4E7802D35
:1008C80003D9A02D03D9022104E0002102E001216F
:1008D80000E003210A4A136823F007030B4313605F
:1008E800136803F007038B4206D0012003B030BD24
:1008F8000221EFE70121EDE70020F7E700100240B1
:1009080000200240314A9368D26802F0030213F0D3
:100918000C030AD00C2B06D0042B1FD0082B20D098
:100928000020014610E0012AF6D1284A126812F088
:10093800080F0CD1254AD2F89420C2F30322244987
:1009480051F8221043B100200C2B0DD070471F4ADC
:100958001268C2F30312F2E70846F5E71D480021C2
:10096800F2E71D480021EFE7184BDA6802F00302AE
:10097800DB68C3F302130133022A0AD0032A1AD010
:10098800B1FBF3F3114AD068C0F3062000FB03F073
:1009980008E01048B0FBF3F30C4AD068C0F3062017
:1009A80000FB03F0094BDB68C3F3416301335B00D1
:1009B800B0FBF3F0CAE70848B0FBF3F3034AD0688A
:1009C800C0F3062000FB03F0ECE700BF0010024074
:1009D800482100080024F40000127A00002800F0E2
:1009E8009082F0B583B00446AC4B9D6805F00C05C9
:1009F800DE6806F00306036813F0100F5DD0E5B15A
:100A08000C2D18D0A369002B00F0B780A34A1368F7
:100A180043F001031360FFF78BFD07469F4B1B68EC
:100A280013F0020F40F09680FFF782FDC01B0228EA
:100A3800F4D9032371E2012EE4D1984B1B6813F01B
:100A4800020F03D0A369002B00F05E82206A934B4B
:100A58001B6813F0080F5DD0904B1B6803F0F00380
:100A680098425ED9FFF706FF002840F04F828B4B73
:100A78001A6842F008021A601A6822F0F002216A25
:100A88000A431A605A6822F47F42E16942EA012265
:100A98005A60FFF737FF814B9B68C3F30313804A03
:100AA800D35C03F01F03D8407E4B18600020FFF78B
:100AB80007FD0346002840F03082236813F0010F39
:100AC8007AD0082D6FD00C2D6BD06368B3F5803FBA
:100AD80000F09180B3F5A02F00F093806F4B1A6857
:100AE80022F480321A601A6822F480221A6063683D
:100AF800002B00F09380FFF71BFD0746674B1B6830
:100B080013F4003F58D1FFF713FDC01B6428F5D933
:100B1800032302E2614BD3F894301B0903F0F0037E
:100B28009EE75E4B1A6842F008021A601A6822F0C3
:100B3800F002216A0A431A605A6822F47F42E16986
:100B480042EA01225A60206AFFF794FE0028A0D0EA
:100B58000123E2E1514B1A6842F008021A601A6850
:100B680022F0F002216A0A431A605A6822F47F428E
:100B7800E16942EA01225A609FE7484A136823F074
:100B880001031360FFF7D4FC0746444B1B6813F0BE
:100B9800020F92D0FFF7CCFCC01B0228F5D9032323
:100BA800BBE1032E91D13D4B1B6813F4003F03D0EA
:100BB8006368002B00F0AC81236813F0020F4FD05C
:100BC800042D3CD00C2D38D0E368002B75D0334A67
:100BD800136843F480731360FFF7AAFC06462F4B93
:100BE8001B6813F4806F5FD1FFF7A2FC801B0228FB
:100BF800F5D9032391E1294A136843F4803313603C
:100C080075E703F18043A3F53C331A6842F4802268
:100C18001A601A6842F480321A6068E7FFF788FCA5
:100C280007461E4B1B6813F4003FC5D0FFF780FC36
:100C3800C01B6428F5D903236FE1022EC4D1174BDA
:100C48001B6813F4806F03D0E368002B00F0628107
:100C5800124A536823F0F853216943EA0163536049
:100C6800236813F0080F53D06369002B39D00B4A5F
:100C7800D2F8943043F00103C2F89430FFF758FCDF
:100C88000646064BD3F8943013F0020F40D1FFF715
:100C98004FFC801B0228F4D903233EE100100240D8
:100CA80078210008000000209E4A536823F0F8537A
:100CB800216943EA01635360D2E79A4A136823F42F
:100CC80080731360FFF734FC0646964B1B6813F4D9
:100CD800806FC5D0FFF72CFC801B0228F5D90323B1
:100CE8001BE1904AD2F8943023F00103C2F8943003
:100CF800FFF71EFC06468B4BD3F8943013F0020F17
:100D080006D0FFF715FC801B0228F4D9032304E161
:100D1800236813F0040F7AD0824B9B6D13F0805F29
:100D28000BD1804B9A6D42F080529A659B6D03F00F
:100D380080530193019B012600E000267A4B1B6833
:100D480013F4807F26D0A368012B37D0052B3DD024
:100D5800744BD3F8902022F00102C3F89020D3F806
:100D6800902022F00402C3F89020A368002B3BD007
:100D7800FFF7DEFB07466B4BD3F8903013F0020FFA
:100D880044D1FFF7D5FBC01B41F288339842F2D912
:100D98000323C2E0644A136843F480731360FFF7C7
:100DA800C7FB0746604B1B6813F4807FCBD1FFF766
:100DB800BFFBC01B0228F5D90323AEE0594AD2F87D
:100DC800903043F00103C2F89030CEE7554BD3F88A
:100DD800902042F00402C3F89020D3F8902042F00B
:100DE8000102C3F89020C0E7FFF7A2FB07464D4B6E
:100DF800D3F8903013F0020F08D0FFF799FBC01B0F
:100E080041F288339842F2D9032386E066BBA36A8D
:100E1800002B00F081800C2D00F08280022B29D05D
:100E2800404B1A6822F080721A601B6813F0205F2A
:100E380004D13C4AD36823F00303D360394AD3680A
:100E480023F0887323F48033D360FFF771FB0446E3
:100E5800344B1B6813F0007F51D0FFF769FB001B70
:100E68000228F5D9032358E02E4A936D23F08053C6
:100E78009365CCE72B4A136823F080731360FFF760
:100E880057FB0546274B1B6813F0007F06D0FFF77A
:100E98004FFB401B0228F5D903233EE0236B5A1E63
:100EA800636B1B0243EA0213A26B120943EA424333
:100EB800E26A1343E26B5208013A43EA4253226C56
:100EC8005208013A43EA4263164AD360136843F072
:100ED80080731360D36843F08073D360FFF728FBF7
:100EE8000446104B1B6813F0007F06D1FFF720FB68
:100EF800001B0228F5D903230FE000230DE000238F
:100F08000BE0012318467047012306E0012304E0A3
:100F1800012302E0012300E00023184603B0F0BDDE
:100F28000123FAE70010024000700040002800F09A
:100F38009A8070B504464E4B1B6803F007038B423A
:100F48000CD24B4A136823F007030B431360136852
:100F580003F007038B4201D0012070BD0D462368C2
:100F680013F0010F39D06368032B09D0022B26D068
:100F780063BB404A126812F0020F06D10120ECE769
:100F88003C4A126812F0007F6FD03A498A6822F012
:100F9800030213438B60FFF7CBFA0646354B9B6879
:100FA80003F00C036268B3EB820F16D0FFF7C0FAA8
:100FB800801B41F288339842F0D90320CDE72D4AAF
:100FC800126812F4003FE0D10120C6E7294A1268EE
:100FD80012F4806FD9D10120BFE7236813F0020F04
:100FE80006D0244A936823F0F003A1680B4393606A
:100FF8001F4B1B6803F00703AB420CD91C4A13684C
:1010080023F007032B431360136803F00703AB4275
:1010180001D00120A1E7236813F0040F06D0154A78
:10102800936823F4E063E1680B439360236813F04B
:10103800080F07D00F4A936823F46053216943EAE5
:10104800C1039360FFF75EFC0A4B9B68C3F303136D
:10105800094AD35C03F01F03D840084B18600020EE
:10106800FFF72EFA79E701207047012075E700BFE6
:1010780000200240001002407821000800000020F3
:10108800014B1868704700BF0000002008B5FFF743
:10109800F7FF054B9B68C3F30223044AD35C03F0B4
:1010A8001F03D84008BD00BF001002408821000877
:1010B80008B5FFF7E5FF054B9B68C3F3C223044A55
:1010C800D35C03F01F03D84008BD00BF00100240E6
:1010D80088210008F8B55A4BDB6813F0030F18D0C5
:1010E800574BDB6803F003030268934202D00125E3
:1010F8002846F8BD002A00F0A080514BDB68C3F3F6
:10110800021301334268934201D00125F0E700251C
:101118001AE00368022B59D0032B5ED0012B01D0B3
:1011280001250FE0464A126812F0020F61D0444DC3
:10113800EA6822F073024468013C43EA041313434B
:10114800EB600025002DD3D10F4604463C4A1368B6
:1011580023F080631360FFF7EBF90646384B1B68F2
:1011680013F0006F05D0FFF7E3F9801B0228F5D9CB
:101178000325002DBCD1002F3DD131490B6923F443
:101188001F3323F44073A068E2681209520442EA4C
:10119800002213430B612A4A136843F080631360EB
:1011A800FFF7C6F90646264B1B6813F0006F05D1FA
:1011B800FFF7BEF9801B0228F5D90325002D97D12A
:1011C8001F4A1369A1690B43136191E71C4A12680E
:1011D80012F4806FABD10125B4E7194A126812F4F2
:1011E800003FA4D1164A126812F4802F9FD101251E
:1011F800A8E70125A6E7012F0FD01148026922F0C0
:10120800C06222F4FE42A16863695B08013B5B0689
:1012180043EA012313430361BDE70948026922F445
:10122800C00222F4FE42A16823695B08013B5B050A
:1012380043EA012313430361ADE7012558E700BFE3
:1012480000100240F8B5514BDB6813F0030F18D0BB
:101258004E4BDB6803F003030268934202D001257A
:101268002846F8BD002A00F08E80484BDB68C3F39F
:10127800021301334268934201D00125F0E70025AB
:101288001AE00368022B59D0032B5ED0012B01D042
:1012980001250FE03D4A126812F0020F61D03B4D64
:1012A800EA6822F073024468013C43EA04131343DA
:1012B800EB600025002DD3D10F460446334A13684E
:1012C80023F080531360FFF733F906462F4B1B6852
:1012D80013F0005F05D0FFF72BF9801B0228F5D922
:1012E8000325002DBCD1002F3DD128494B6923F49B
:1012F8001F3323F44073A068E2681209520442EADB
:10130800002213434B61214A136843F08053136052
:10131800FFF70EF906461D4B1B6813F0005F05D159
:10132800FFF706F9801B0228F5D90325002D97D170
:10133800164A536961690B43536191E7134A12686E
:1013480012F4806FABD10125B4E7104A126812F489
:10135800003FA4D10D4A126812F4802F9FD10125B5
:10136800A8E70125A6E70948426922F0C06222F4ED
:10137800FE42A16823695B08013B5B0643EA01233F
:1013880013434361BFE701256AE700BF001002402D
:101398002DE9F04182B00446036813F4006F2FD0A2
:1013A800436EB3F5800F25D008D9B3F5000F10D0E0
:1013B800B3F5400F40F09980002610E0002B40F074
:1013C800948000210430FFF785FE06463EB137467B
:1013D80018E05E4AD36843F48033D36000265B4A42
:1013E800D2F8883023F44003616E0B43C2F888308A
:1013F800002707E000212030FFF724FF0646E5E735
:1014080000273E46236813F4805F15D0A36EB3F11E
:10141800807F7AD06CD9B3F1007F70D0B3F1407F70
:101428007AD1002E7BD1494AD2F8883023F0407314
:10143800A16E0B43C2F88830236813F4003F00F014
:101448008E80424B9B6D13F0805F6AD13F4B9A6D43
:1014580042F080529A659B6D03F080530193019B83
:101468004FF001083A4A136843F480731360FFF79A
:101478005FF80546364B1B6813F4807F05D1FFF7EC
:1014880057F8401B0228F5D90326002E62D12F4BAE
:10149800D3F8903013F4407316D0D4F884209A42CD
:1014A80012D02A4AD2F8903023F44073D2F8901020
:1014B80041F48031C2F89010D2F8901021F48031B4
:1014C800C2F89010C2F8903013F0010F2CD1002E02
:1014D80040F043811D4AD2F8903023F44073D4F889
:1014E80084100B43C2F8903035E001273E4689E767
:1014F80093B90021201DFFF7EDFD064691E7134A39
:10150800D36843F48033D3608BE7002104F12000D3
:10151800FFF798FE064684E701273E468CE73746E4
:101528008AE74FF000089DE7FFF702F80546074BEA
:10153800D3F8903013F0020FC9D1FEF7F9FF401B22
:1015480041F288339842F2D90326C0E700100240DE
:10155800007000403746B8F1000F40F00081236862
:1015680013F0010F08D09D4AD2F8883023F0030306
:10157800A16B0B43C2F88830236813F0020F08D020
:10158800964AD2F8883023F00C03E16B0B43C2F87B
:101598008830236813F0040F08D0904AD2F88830B6
:1015A80023F03003216C0B43C2F88830236813F012
:1015B800080F08D0894AD2F8883023F0C003616C3C
:1015C8000B43C2F88830236813F0100F08D0834A01
:1015D800D2F8883023F44073A16C0B43C2F88830EA
:1015E800236813F0200F08D07C4AD2F8883023F4FF
:1015F8004063E16C0B43C2F88830236813F4007F22
:1016080008D0764AD2F8883023F44023E16D0B43A2
:10161800C2F88830236813F4806F08D06F4AD2F874
:10162800883023F44013216E0B43C2F888302368B6
:1016380013F0400F08D0694AD2F8883023F4405399
:10164800216D0B43C2F88830236813F0800F08D04F
:10165800624AD2F8883023F44043616D0B43C2F8E4
:101668008830236813F4807F08D05C4AD2F8883029
:1016780023F44033A16D0B43C2F88830236813F478
:10168800005F0FD0554AD2F8883023F04063E16EEE
:101698000B43C2F88830E36EB3F1006F65D0B3F145
:1016A800806F67D0236813F4002F0FD04B4AD2F80D
:1016B800883023F04063216F0B43C2F88830236FD2
:1016C800B3F1006F5ED0B3F1806F60D0236813F47C
:1016D800802F0FD0414AD2F8883023F04063616FE1
:1016E8000B43C2F88830636FB3F1006F57D0B3F182
:1016F800806F59D0236813F4804F0FD0374AD2F83F
:10170800883023F04053A16F0B43C2F88830A36F91
:10171800B3F1805F50D0B3F1005F55D0236813F464
:10172800004F08D02D4AD2F8883023F08043E16F6B
:101738000B43C2F88830236813F4803F09D0274A46
:10174800D2F8883023F00043D4F880100B43C2F855
:101758008830384602B0BDE8F0813746FBE61F4ABC
:10176800936D23F080539365F9E6D36843F48013AF
:10177800D36097E70121201DFFF7ACFC002891D02A
:1017880007468FE7D36843F48013D3609EE70121AF
:10179800201DFFF79FFC002898D0074696E7D368DE
:1017A80043F48013D360A5E70121201DFFF792FCC5
:1017B80000289FD007469DE70221201DFFF78AFCDD
:1017C8000028ABD00746A9E7022104F12000FFF763
:1017D80039FD0028A2D00746A0E700BF001002404C
:1017E8002DE9F04804460168836802691343426999
:1017F8001343C26913430868A24A024013430B60AB
:101808002268536823F44053E1680B435360A1698D
:1018180022689D4B9A4201D0236A1943936823F4A6
:1018280030630B4393602368984A934227D0984AC1
:10183800934238D0974A93424ED0974A934261D008
:10184800964A934274D0904A934200F08A801025B9
:101858008D4A934200F0AA80E369B3F5004F00F087
:101868003581082D00F2BF81DFE815F07F01950171
:101878009F01BD01AA01BD01BD01BD01B40102F571
:101888005842D2F8882002F00302032A09D8DFE878
:1018980002F0020481060125DAE70425D8E70825C5
:1018A800D6E71025D4E702F5E632D2F8882002F010
:1018B8000C020C2A0ED8DFE802F0070D0D0D090DF9
:1018C8000D0D6F0D0D0D0B000025C1E70425BFE7B9
:1018D8000825BDE71025BBE702F5E432D2F88820D9
:1018E80002F03002102A09D005D9202A56D0302A11
:1018F80006D10825ACE71AB90025A9E70425A7E70A
:101908001025A5E702F5E232D2F8882002F0C002DD
:10191800402A09D005D9802A42D0C02A06D10825F4
:1019280096E71AB9002593E7042591E710258FE774
:1019380002F5E032D2F8882002F44072B2F5807FD6
:101948000BD007D9B2F5007F2CD0B2F5407F06D175
:1019580008257DE71AB900257AE7042578E71025D8
:1019680076E702F5C832D2F8882002F44062B2F570
:10197800806F0BD007D9B2F5006F15D0B2F5406F64
:1019880006D1082564E71AB9002561E704255FE751
:1019980010255DE702255BE7022559E7022557E791
:1019A800022555E7022553E7022551E7082D00F2E5
:1019B8001D81DFE815F00C001B0114001B0111004C
:1019C8001B011B011B0109004FF4004008E0FFF751
:1019D8005DFB28B90020D9E0FEF794FFF9E730480D
:1019E800626802EB4203834200F20281B0EB023FDD
:1019F80000F20081082D66D8DFE805F0056520654E
:101A0800306565655800FFF741FB0025070E0602A3
:101A1800626850082B4616EB000B47F1000C58463D
:101A28006146FEF7CDFB03462846A3F540711D4AE3
:101A3800914200F2E1802268D360A7E056080025B1
:101A48002B46DFF864B04FF0000C1BEB06004CF19E
:101A58000001FEF7B5FB03462846E6E7FEF752FF0E
:101A68000025070E0602626850082B4616EB000B8D
:101A780047F1000C58466146FEF7A2FB034628468C
:101A8800D3E700BFF369FFEF008000400038014052
:101A98000044004000480040004C00400050004016
:101AA8000024F400FFFC0F00000024F45008002775
:101AB80000252B4610F5000047F10001FEF780FBDA
:101AC80003462846B1E701200023AEE7082D49D890
:101AD800DFE805F0051E2948344848483F00FFF76D
:101AE800D5FA6268530803EB4003B3FBF2F39BB2E9
:101AF8000020A3F110014FF6EF7291427ED89AB2FE
:101B080022F00F02C3F3420313432268D3603DE07F
:101B1800FFF7CEFA6268530803EB4003B3FBF2F316
:101B28009BB20020E5E76268530803F1F47303F5FC
:101B38009043B3FBF2F39BB20020DAE7FEF7E2FE34
:101B48006268530803EB4003B3FBF2F39BB2002037
:101B5800CFE76268530803F58033B3FBF2F39BB217
:101B68000020C6E701200023C3E7FFF78FFA636868
:101B780000EB5302B2FBF3F292B20020A2F1100183
:101B88004FF6EF7399423BD82368DA600022226649
:101B98006266BDE8F088FFF78BFA636800EB5302D2
:101BA800B2FBF3F292B20020E8E763685A0802F544
:101BB800740202F51052B2FBF3F292B20020DDE794
:101BC800FEF7A0FE636800EB5302B2FBF3F292B299
:101BD8000020D3E763685A0802F50042B2FBF3F22B
:101BE80092B20020CAE701200022C7E70120CDE712
:101BF8000120CBE70120C9E70120C7E70120C5E79D
:101C08000120C3E7436A13F0010F06D00268536846
:101C180023F40033816A0B435360436A13F0020FC5
:101C280006D00268536823F48033C16A0B435360BB
:101C3800436A13F0040F06D00268536823F4802324
:101C4800016B0B435360436A13F0080F06D0026818
:101C5800536823F40043416B0B435360436A13F00A
:101C6800100F06D00268936823F48053816B0B43EE
:101C78009360436A13F0200F06D00268936823F438
:101C88000053C16B0B439360436A13F0400F0AD0B3
:101C98000268536823F48013016C0B435360036C90
:101CA800B3F5801F0BD0436A13F0800F06D002688B
:101CB800536823F40023816C0B4353607047026818
:101CC800536823F4C003416C0B435360EBE72DE9E1
:101CD800F04105460F4616469846069C2B68DB6978
:101CE80037EA03030CBF01230023B3421DD1B4F12B
:101CF800FF3FF3D02CB1FEF71BFCA0EB0800A0427D
:101D0800ECD92A68136823F4D07313602A6893689F
:101D180023F001039360202385F8713085F8723031
:101D2800002385F87030032000E00020BDE8F08132
:101D380030B583B0044600234367FEF7F9FB054638
:101D480023681B6813F0080F0ED123681B6813F073
:101D5800040F17D1202384F8713084F872300020E2
:101D680084F8700003B030BD6FF07E4300930346E3
:101D780000224FF400112046FFF7A9FF0028E4D005
:101D88000320EFE76FF07E4300932B4600224FF4C9
:101D980080012046FFF79BFF0028DBD00320E1E706
:101DA80078B310B5044690F871300BB3242384F847
:101DB80071302268136823F0010313602046FFF78F
:101DC8000FFD012813D0636ABBB92268536823F456
:101DD800904353602268936823F02A039360226833
:101DE800136843F0010313602046FFF7A1FF10BDFD
:101DF80080F8703000F0DCF8D8E72046FFF702FFE3
:101E0800E3E701207047000010B58AB0002405946C
:101E18000694079408940994204BDA6C42F0040263
:101E2800DA64DA6C02F004020192019ADA6C42F088
:101E38008002DA64DA6C02F080020292029ADA6CAA
:101E480042F00102DA64DA6C02F001020392039AAA
:101E5800DA6C42F00202DA64DB6C03F002030493EA
:101E6800049B224620214FF09040FEF7ADFC4FF432
:101E7800005305930A4B0693079405A90948FEF7F2
:101E8800B9FB20230593012306930794089405A919
:101E98004FF09040FEF7AEFB0AB010BD00100240B4
:101EA800000021100008004808B50948094B0360E4
:101EB8004FF4E133436000238360C36003610C2265
:101EC80042618361C36103624362FFF769FF08BD32
:101ED800280000200044004030B5B9B02422002179
:101EE80028A800F017F90024229423942494259418
:101EF800269488222146684600F00CF90225279589
:101F08004FF480732A9310232B9331953295012334
:101F180033930A233493072335933695379527A8A7
:101F2800FEF75CFD0F232293032323932494259427
:101F38002694042122A8FEF7F9FF00950F9468461D
:101F4800FFF726FA4FF40070FEF74CFC39B030BDAD
:101F580008B5FEF7CFFAFFF7BFFFFFF755FFFFF70A
:101F6800A3FF03E00133054A9342FBD90122202154
:101F78004FF09040FEF728FC0023F4E77F96980086
:101F880082B00A4B1A6E42F001021A661A6E02F00B
:101F980001020092009A9A6D42F080529A659B6DF8
:101FA80003F080530193019B02B070470010024078
:101FB80000B589B000230393049305930693079310
:101FC8000268144B9A4202D009B05DF804FB03F58D
:101FD800E6339A6D42F400329A659A6D02F4003243
:101FE8000192019ADA6C42F00102DA64DB6C03F0C8
:101FF80001030293029B0C230393022304930323FC
:1020080006930723079303A94FF09040FEF7F2FACF
:10201800DAE700BF004400407047FEE7FEE7FEE74E
:10202800FEE770477047704708B5FEF779FA08BDB4
:102038000F49D1F8883043F47003C1F888300D4B4C
:102048001A6842F001021A60002098601A6822F0AB
:10205800A85222F410221A604FF48052DA601A68EB
:1020680022F480221A6098614FF000638B607047F9
:1020780000ED00E000100240DFF834D0002103E05A
:102088000C4B5B58435004310B480C4B42189A4296
:10209800F6D30B4A02E0002342F8043B094B9A426C
:1020A800F9D3FFF7C5FF00F011F8FFF751FFFEE77E
:1020B80000800120A821000800000020080000205E
:1020C80008000020A0000020FEE7000070B50D4EBB
:1020D8000D4CA41BA4100025A54209D10B4E0C4C95
:1020E80000F020F8A41BA4100025A54205D170BD5E
:1020F80056F8253098470135EEE756F825309847C9
:102108000135F2E798210008982100089821000875
:102118009C21000802440346934200D1704703F80B
:10212800011BF9E7F8B500BFF8BC08BC9E4670472C
:10213800F8B500BFF8BC08BC9E4670470000000018
:10214800A0860100400D0300801A060000350C002F
:1021580040420F0080841E0000093D0000127A00F2
:102168000024F40000366E010048E801006CDC022F
:10217800000000000000000001020304060708092F
:08218800000000000102030445
:0821900068E0FF7F0100000080
:08219800AD0100080000000089
:0821A0008901000800000000A5
:0821A80000093D0000000000E9
:04000005080020814E
:00000001FF
